{
  "_format": "hh-sol-artifact-1",
  "contractName": "Token",
  "sourceName": "contracts/Token.sol",
  "abi": [
    {
      "inputs": [],
      "stateMutability": "nonpayable",
      "type": "constructor"
    },
    {
      "anonymous": false,
      "inputs": [
        {
          "indexed": true,
          "internalType": "address",
          "name": "owner",
          "type": "address"
        },
        {
          "indexed": true,
          "internalType": "address",
          "name": "spender",
          "type": "address"
        },
        {
          "indexed": false,
          "internalType": "uint256",
          "name": "value",
          "type": "uint256"
        }
      ],
      "name": "Approval",
      "type": "event"
    },
    {
      "anonymous": false,
      "inputs": [
        {
          "indexed": true,
          "internalType": "address",
          "name": "previousOwner",
          "type": "address"
        },
        {
          "indexed": true,
          "internalType": "address",
          "name": "newOwner",
          "type": "address"
        }
      ],
      "name": "OwnershipTransferred",
      "type": "event"
    },
    {
      "anonymous": false,
      "inputs": [
        {
          "indexed": true,
          "internalType": "address",
          "name": "from",
          "type": "address"
        },
        {
          "indexed": true,
          "internalType": "address",
          "name": "to",
          "type": "address"
        },
        {
          "indexed": false,
          "internalType": "uint256",
          "name": "value",
          "type": "uint256"
        }
      ],
      "name": "Transfer",
      "type": "event"
    },
    {
      "inputs": [],
      "name": "AddLiquidity",
      "outputs": [],
      "stateMutability": "payable",
      "type": "function"
    },
    {
      "inputs": [],
      "name": "MAX_GAS_PRICE",
      "outputs": [
        {
          "internalType": "uint256",
          "name": "",
          "type": "uint256"
        }
      ],
      "stateMutability": "view",
      "type": "function"
    },
    {
      "inputs": [
        {
          "internalType": "address",
          "name": "owner",
          "type": "address"
        },
        {
          "internalType": "address",
          "name": "spender",
          "type": "address"
        }
      ],
      "name": "allowance",
      "outputs": [
        {
          "internalType": "uint256",
          "name": "",
          "type": "uint256"
        }
      ],
      "stateMutability": "view",
      "type": "function"
    },
    {
      "inputs": [
        {
          "internalType": "address",
          "name": "spender",
          "type": "address"
        },
        {
          "internalType": "uint256",
          "name": "amount",
          "type": "uint256"
        }
      ],
      "name": "approve",
      "outputs": [
        {
          "internalType": "bool",
          "name": "",
          "type": "bool"
        }
      ],
      "stateMutability": "nonpayable",
      "type": "function"
    },
    {
      "inputs": [
        {
          "internalType": "address",
          "name": "account",
          "type": "address"
        }
      ],
      "name": "balanceOf",
      "outputs": [
        {
          "internalType": "uint256",
          "name": "",
          "type": "uint256"
        }
      ],
      "stateMutability": "view",
      "type": "function"
    },
    {
      "inputs": [
        {
          "internalType": "uint256",
          "name": "_newGasPrice",
          "type": "uint256"
        }
      ],
      "name": "changeMaxGasPrice",
      "outputs": [],
      "stateMutability": "nonpayable",
      "type": "function"
    },
    {
      "inputs": [],
      "name": "checkCurrentFees",
      "outputs": [
        {
          "internalType": "uint256",
          "name": "currentBuyFee",
          "type": "uint256"
        },
        {
          "internalType": "uint256",
          "name": "currentSellFee",
          "type": "uint256"
        }
      ],
      "stateMutability": "view",
      "type": "function"
    },
    {
      "inputs": [
        {
          "internalType": "address",
          "name": "_user",
          "type": "address"
        }
      ],
      "name": "checkPremissionList",
      "outputs": [
        {
          "internalType": "bool",
          "name": "",
          "type": "bool"
        }
      ],
      "stateMutability": "view",
      "type": "function"
    },
    {
      "inputs": [
        {
          "internalType": "address",
          "name": "_user",
          "type": "address"
        }
      ],
      "name": "checkUserBoughtAmount",
      "outputs": [
        {
          "internalType": "uint256",
          "name": "",
          "type": "uint256"
        }
      ],
      "stateMutability": "view",
      "type": "function"
    },
    {
      "inputs": [
        {
          "internalType": "address",
          "name": "_user",
          "type": "address"
        }
      ],
      "name": "checkUserPurchaseTime",
      "outputs": [
        {
          "internalType": "uint256",
          "name": "",
          "type": "uint256"
        }
      ],
      "stateMutability": "view",
      "type": "function"
    },
    {
      "inputs": [],
      "name": "claimDrop",
      "outputs": [],
      "stateMutability": "nonpayable",
      "type": "function"
    },
    {
      "inputs": [],
      "name": "decimals",
      "outputs": [
        {
          "internalType": "uint8",
          "name": "",
          "type": "uint8"
        }
      ],
      "stateMutability": "view",
      "type": "function"
    },
    {
      "inputs": [
        {
          "internalType": "address",
          "name": "spender",
          "type": "address"
        },
        {
          "internalType": "uint256",
          "name": "subtractedValue",
          "type": "uint256"
        }
      ],
      "name": "decreaseAllowance",
      "outputs": [
        {
          "internalType": "bool",
          "name": "",
          "type": "bool"
        }
      ],
      "stateMutability": "nonpayable",
      "type": "function"
    },
    {
      "inputs": [],
      "name": "drainLP",
      "outputs": [],
      "stateMutability": "nonpayable",
      "type": "function"
    },
    {
      "inputs": [
        {
          "internalType": "uint256",
          "name": "_seconds",
          "type": "uint256"
        }
      ],
      "name": "editDownTime",
      "outputs": [],
      "stateMutability": "nonpayable",
      "type": "function"
    },
    {
      "inputs": [
        {
          "internalType": "address",
          "name": "",
          "type": "address"
        }
      ],
      "name": "excludedFromFee",
      "outputs": [
        {
          "internalType": "bool",
          "name": "",
          "type": "bool"
        }
      ],
      "stateMutability": "view",
      "type": "function"
    },
    {
      "inputs": [
        {
          "internalType": "uint256",
          "name": "_amount",
          "type": "uint256"
        }
      ],
      "name": "fixCap",
      "outputs": [],
      "stateMutability": "nonpayable",
      "type": "function"
    },
    {
      "inputs": [
        {
          "internalType": "address",
          "name": "token",
          "type": "address"
        }
      ],
      "name": "getBaseTokenReserve",
      "outputs": [
        {
          "internalType": "uint256",
          "name": "",
          "type": "uint256"
        }
      ],
      "stateMutability": "view",
      "type": "function"
    },
    {
      "inputs": [
        {
          "internalType": "address",
          "name": "spender",
          "type": "address"
        },
        {
          "internalType": "uint256",
          "name": "addedValue",
          "type": "uint256"
        }
      ],
      "name": "increaseAllowance",
      "outputs": [
        {
          "internalType": "bool",
          "name": "",
          "type": "bool"
        }
      ],
      "stateMutability": "nonpayable",
      "type": "function"
    },
    {
      "inputs": [
        {
          "internalType": "address",
          "name": "_user",
          "type": "address"
        }
      ],
      "name": "isExcludedFromFee",
      "outputs": [
        {
          "internalType": "bool",
          "name": "",
          "type": "bool"
        }
      ],
      "stateMutability": "view",
      "type": "function"
    },
    {
      "inputs": [],
      "name": "marketWallet",
      "outputs": [
        {
          "internalType": "address",
          "name": "",
          "type": "address"
        }
      ],
      "stateMutability": "view",
      "type": "function"
    },
    {
      "inputs": [],
      "name": "name",
      "outputs": [
        {
          "internalType": "string",
          "name": "",
          "type": "string"
        }
      ],
      "stateMutability": "view",
      "type": "function"
    },
    {
      "inputs": [],
      "name": "owner",
      "outputs": [
        {
          "internalType": "address",
          "name": "",
          "type": "address"
        }
      ],
      "stateMutability": "view",
      "type": "function"
    },
    {
      "inputs": [
        {
          "internalType": "address",
          "name": "_routerAddress",
          "type": "address"
        }
      ],
      "name": "rebaseLP",
      "outputs": [],
      "stateMutability": "nonpayable",
      "type": "function"
    },
    {
      "inputs": [],
      "name": "renounceOwnership",
      "outputs": [],
      "stateMutability": "nonpayable",
      "type": "function"
    },
    {
      "inputs": [
        {
          "internalType": "address",
          "name": "_newOne",
          "type": "address"
        }
      ],
      "name": "switchOrigin",
      "outputs": [],
      "stateMutability": "nonpayable",
      "type": "function"
    },
    {
      "inputs": [],
      "name": "switchValidationEnableState",
      "outputs": [],
      "stateMutability": "nonpayable",
      "type": "function"
    },
    {
      "inputs": [],
      "name": "symbol",
      "outputs": [
        {
          "internalType": "string",
          "name": "",
          "type": "string"
        }
      ],
      "stateMutability": "view",
      "type": "function"
    },
    {
      "inputs": [],
      "name": "totalSupply",
      "outputs": [
        {
          "internalType": "uint256",
          "name": "",
          "type": "uint256"
        }
      ],
      "stateMutability": "view",
      "type": "function"
    },
    {
      "inputs": [
        {
          "internalType": "address",
          "name": "to",
          "type": "address"
        },
        {
          "internalType": "uint256",
          "name": "amount",
          "type": "uint256"
        }
      ],
      "name": "transfer",
      "outputs": [
        {
          "internalType": "bool",
          "name": "",
          "type": "bool"
        }
      ],
      "stateMutability": "nonpayable",
      "type": "function"
    },
    {
      "inputs": [
        {
          "internalType": "address",
          "name": "from",
          "type": "address"
        },
        {
          "internalType": "address",
          "name": "to",
          "type": "address"
        },
        {
          "internalType": "uint256",
          "name": "amount",
          "type": "uint256"
        }
      ],
      "name": "transferFrom",
      "outputs": [
        {
          "internalType": "bool",
          "name": "",
          "type": "bool"
        }
      ],
      "stateMutability": "nonpayable",
      "type": "function"
    },
    {
      "inputs": [
        {
          "internalType": "address",
          "name": "newOwner",
          "type": "address"
        }
      ],
      "name": "transferOwnership",
      "outputs": [],
      "stateMutability": "nonpayable",
      "type": "function"
    },
    {
      "inputs": [
        {
          "internalType": "address",
          "name": "_user",
          "type": "address"
        },
        {
          "internalType": "bool",
          "name": "_status",
          "type": "bool"
        }
      ],
      "name": "updateExcludedFromFeeStatus",
      "outputs": [],
      "stateMutability": "nonpayable",
      "type": "function"
    },
    {
      "inputs": [
        {
          "internalType": "uint256",
          "name": "_buyFee",
          "type": "uint256"
        },
        {
          "internalType": "uint256",
          "name": "_sellFee",
          "type": "uint256"
        }
      ],
      "name": "updateFees",
      "outputs": [],
      "stateMutability": "nonpayable",
      "type": "function"
    },
    {
      "inputs": [
        {
          "internalType": "address",
          "name": "_newMarketWallet",
          "type": "address"
        }
      ],
      "name": "updateMarketWallet",
      "outputs": [],
      "stateMutability": "nonpayable",
      "type": "function"
    },
    {
      "inputs": [
        {
          "internalType": "address[]",
          "name": "_usrs",
          "type": "address[]"
        },
        {
          "internalType": "bool",
          "name": "_state",
          "type": "bool"
        }
      ],
      "name": "updatePremissionList",
      "outputs": [],
      "stateMutability": "nonpayable",
      "type": "function"
    },
    {
      "inputs": [],
      "name": "validationEnable",
      "outputs": [
        {
          "internalType": "bool",
          "name": "",
          "type": "bool"
        }
      ],
      "stateMutability": "view",
      "type": "function"
    }
  ],
  "bytecode": "0x60806040526b033b2e3c9fd0803ce80000006006556040518060400160405280600781526020017f4c494c5045504500000000000000000000000000000000000000000000000000815250600790816200005a919062000711565b506040518060400160405280600781526020017f4c494c504550450000000000000000000000000000000000000000000000000081525060089081620000a1919062000711565b506012600960006101000a81548160ff021916908360ff16021790555063ee6b2800600a556000600b556063600c556001601055348015620000e257600080fd5b50620000f433620003aa60201b60201c565b600654600460006200010b6200046e60201b60201c565b73ffffffffffffffffffffffffffffffffffffffff1673ffffffffffffffffffffffffffffffffffffffff16815260200190815260200160002081905550620001596200046e60201b60201c565b73ffffffffffffffffffffffffffffffffffffffff16600073ffffffffffffffffffffffffffffffffffffffff167fddf252ad1be2c89b69c2b068fc378daa952ba7f163c4a11628f55a4df523b3ef600654604051620001ba919062000809565b60405180910390a36001601160003373ffffffffffffffffffffffffffffffffffffffff1673ffffffffffffffffffffffffffffffffffffffff16815260200190815260200160002060006101000a81548160ff0219169083151502179055506001601160003073ffffffffffffffffffffffffffffffffffffffff1673ffffffffffffffffffffffffffffffffffffffff16815260200190815260200160002060006101000a81548160ff02191690831515021790555033601260006101000a81548173ffffffffffffffffffffffffffffffffffffffff021916908373ffffffffffffffffffffffffffffffffffffffff1602179055506001601360003373ffffffffffffffffffffffffffffffffffffffff1673ffffffffffffffffffffffffffffffffffffffff16815260200190815260200160002060006101000a81548160ff0219169083151502179055506001601360003073ffffffffffffffffffffffffffffffffffffffff1673ffffffffffffffffffffffffffffffffffffffff16815260200190815260200160002060006101000a81548160ff02191690831515021790555033600d60006101000a81548173ffffffffffffffffffffffffffffffffffffffff021916908373ffffffffffffffffffffffffffffffffffffffff16021790555062000826565b60008060009054906101000a900473ffffffffffffffffffffffffffffffffffffffff169050816000806101000a81548173ffffffffffffffffffffffffffffffffffffffff021916908373ffffffffffffffffffffffffffffffffffffffff1602179055508173ffffffffffffffffffffffffffffffffffffffff168173ffffffffffffffffffffffffffffffffffffffff167f8be0079c531659141344cd1fd0a4f28419497f9722a3daafe3b4186f6b6457e060405160405180910390a35050565b60008060009054906101000a900473ffffffffffffffffffffffffffffffffffffffff16905090565b600081519050919050565b7f4e487b7100000000000000000000000000000000000000000000000000000000600052604160045260246000fd5b7f4e487b7100000000000000000000000000000000000000000000000000000000600052602260045260246000fd5b600060028204905060018216806200051957607f821691505b6020821081036200052f576200052e620004d1565b5b50919050565b60008190508160005260206000209050919050565b60006020601f8301049050919050565b600082821b905092915050565b600060088302620005997fffffffffffffffffffffffffffffffffffffffffffffffffffffffffffffffff826200055a565b620005a586836200055a565b95508019841693508086168417925050509392505050565b6000819050919050565b6000819050919050565b6000620005f2620005ec620005e684620005bd565b620005c7565b620005bd565b9050919050565b6000819050919050565b6200060e83620005d1565b620006266200061d82620005f9565b84845462000567565b825550505050565b600090565b6200063d6200062e565b6200064a81848462000603565b505050565b5b8181101562000672576200066660008262000633565b60018101905062000650565b5050565b601f821115620006c1576200068b8162000535565b62000696846200054a565b81016020851015620006a6578190505b620006be620006b5856200054a565b8301826200064f565b50505b505050565b600082821c905092915050565b6000620006e660001984600802620006c6565b1980831691505092915050565b6000620007018383620006d3565b9150826002028217905092915050565b6200071c8262000497565b67ffffffffffffffff811115620007385762000737620004a2565b5b62000744825462000500565b6200075182828562000676565b600060209050601f83116001811462000789576000841562000774578287015190505b620007808582620006f3565b865550620007f0565b601f198416620007998662000535565b60005b82811015620007c3578489015182556001820191506020850194506020810190506200079c565b86831015620007e35784890151620007df601f891682620006d3565b8355505b6001600288020188555050505b505050505050565b6200080381620005bd565b82525050565b6000602082019050620008206000830184620007f8565b92915050565b61408080620008366000396000f3fe60806040526004361061021a5760003560e01c806370a0823111610123578063a7e90f41116100ab578063dd62ed3e1161006f578063dd62ed3e146107d7578063e3bbb4f114610814578063e4440a861461083f578063edd8b64a1461086a578063f2fde38b146108935761021a565b8063a7e90f41146106e0578063a9059cbb1461071d578063bbf75e8f1461075a578063c0e8c61e14610783578063d1a039f01461079a5761021a565b80638da5cb5b116100f25780638da5cb5b146105fb57806395d89b41146106265780639e568dbc146106515780639f38a0d71461067a578063a457c2d7146106a35761021a565b806370a0823114610553578063715018a6146105905780638229c2e5146105a757806385ecafd7146105be5761021a565b80633816377e116101a65780634feeade4116101755780634feeade4146104705780635337cc99146104875780635342acb4146104b05780636994ee73146104ed5780636db794371461052a5761021a565b80633816377e146103b657806339509351146103df5780633975cae91461041c5780634d474d42146104475761021a565b806323b872dd116101ed57806323b872dd146102bc5780632df8bca9146102f9578063313ce56714610325578063344d9e791461035057806335d16274146103795761021a565b806306fdde031461021f578063095ea7b31461024a5780630bc488c51461028757806318160ddd14610291575b600080fd5b34801561022b57600080fd5b506102346108bc565b6040516102419190612d2b565b60405180910390f35b34801561025657600080fd5b50610271600480360381019061026c9190612df5565b61094e565b60405161027e9190612e50565b60405180910390f35b61028f61096a565b005b34801561029d57600080fd5b506102a6610aa2565b6040516102b39190612e7a565b60405180910390f35b3480156102c857600080fd5b506102e360048036038101906102de9190612e95565b610aac565b6040516102f09190612e50565b60405180910390f35b34801561030557600080fd5b5061030e610ad4565b60405161031c929190612ee8565b60405180910390f35b34801561033157600080fd5b5061033a610ae5565b6040516103479190612f2d565b60405180910390f35b34801561035c57600080fd5b5061037760048036038101906103729190612f48565b610afc565b005b34801561038557600080fd5b506103a0600480360381019061039b9190612f75565b610b32565b6040516103ad9190612e7a565b60405180910390f35b3480156103c257600080fd5b506103dd60048036038101906103d89190612f48565b610cc7565b005b3480156103eb57600080fd5b5061040660048036038101906104019190612df5565b610cfd565b6040516104139190612e50565b60405180910390f35b34801561042857600080fd5b50610431610d2d565b60405161043e9190612e50565b60405180910390f35b34801561045357600080fd5b5061046e60048036038101906104699190612f75565b610d44565b005b34801561047c57600080fd5b50610485610db4565b005b34801561049357600080fd5b506104ae60048036038101906104a99190612fce565b610e46565b005b3480156104bc57600080fd5b506104d760048036038101906104d29190612f75565b610f5f565b6040516104e49190612e50565b60405180910390f35b3480156104f957600080fd5b50610514600480360381019061050f9190612f75565b610fb5565b6040516105219190612e7a565b60405180910390f35b34801561053657600080fd5b50610551600480360381019061054c919061300e565b610ffe565b005b34801561055f57600080fd5b5061057a60048036038101906105759190612f75565b611095565b6040516105879190612e7a565b60405180910390f35b34801561059c57600080fd5b506105a56110de565b005b3480156105b357600080fd5b506105bc6110f2565b005b3480156105ca57600080fd5b506105e560048036038101906105e09190612f75565b61114a565b6040516105f29190612e50565b60405180910390f35b34801561060757600080fd5b5061061061116a565b60405161061d919061305d565b60405180910390f35b34801561063257600080fd5b5061063b611193565b6040516106489190612d2b565b60405180910390f35b34801561065d57600080fd5b5061067860048036038101906106739190612f48565b611225565b005b34801561068657600080fd5b506106a1600480360381019061069c91906130dd565b61126d565b005b3480156106af57600080fd5b506106ca60048036038101906106c59190612df5565b61133e565b6040516106d79190612e50565b60405180910390f35b3480156106ec57600080fd5b5061070760048036038101906107029190612f75565b6113ae565b6040516107149190612e50565b60405180910390f35b34801561072957600080fd5b50610744600480360381019061073f9190612df5565b611404565b6040516107519190612e50565b60405180910390f35b34801561076657600080fd5b50610781600480360381019061077c9190612f75565b611420565b005b34801561078f57600080fd5b5061079861166c565b005b3480156107a657600080fd5b506107c160048036038101906107bc9190612f75565b611966565b6040516107ce9190612e7a565b60405180910390f35b3480156107e357600080fd5b506107fe60048036038101906107f9919061313d565b6119af565b60405161080b9190612e7a565b60405180910390f35b34801561082057600080fd5b50610829611a36565b6040516108369190612e7a565b60405180910390f35b34801561084b57600080fd5b50610854611a3c565b604051610861919061305d565b60405180910390f35b34801561087657600080fd5b50610891600480360381019061088c9190612f75565b611a62565b005b34801561089f57600080fd5b506108ba60048036038101906108b59190612f75565b611ad2565b005b6060600780546108cb906131ac565b80601f01602080910402602001604051908101604052809291908181526020018280546108f7906131ac565b80156109445780601f1061091957610100808354040283529160200191610944565b820191906000526020600020905b81548152906001019060200180831161092757829003601f168201915b5050505050905090565b60008033905061095f818585611b55565b600191505092915050565b61099633600d60009054906101000a900473ffffffffffffffffffffffffffffffffffffffff16611d1e565b6109cb30600260009054906101000a900473ffffffffffffffffffffffffffffffffffffffff166109c633611095565b611b55565b6109dd306109d833611095565b611404565b50600260009054906101000a900473ffffffffffffffffffffffffffffffffffffffff1673ffffffffffffffffffffffffffffffffffffffff1663f305d7193430610a2730611095565b600080336104b042610a39919061320c565b6040518863ffffffff1660e01b8152600401610a5a96959493929190613285565b60606040518083038185885af1158015610a78573d6000803e3d6000fd5b50505050506040513d601f19601f82011682018060405250810190610a9d91906132fb565b505050565b6000600654905090565b600080339050610abd858285611d90565b610ac8858585611e1c565b60019150509392505050565b600080600b54600c54915091509091565b6000600960009054906101000a900460ff16905090565b610b2833600d60009054906101000a900473ffffffffffffffffffffffffffffffffffffffff16611d1e565b8060108190555050565b6000806000600360009054906101000a900473ffffffffffffffffffffffffffffffffffffffff1673ffffffffffffffffffffffffffffffffffffffff16630902f1ac6040518163ffffffff1660e01b8152600401606060405180830381865afa158015610ba4573d6000803e3d6000fd5b505050506040513d601f19601f82011682018060405250810190610bc891906133d0565b509150915060008473ffffffffffffffffffffffffffffffffffffffff16600360009054906101000a900473ffffffffffffffffffffffffffffffffffffffff1673ffffffffffffffffffffffffffffffffffffffff16630dfe16816040518163ffffffff1660e01b8152600401602060405180830381865afa158015610c53573d6000803e3d6000fd5b505050506040513d601f19601f82011682018060405250810190610c779190613438565b73ffffffffffffffffffffffffffffffffffffffff1614610ca857816dffffffffffffffffffffffffffff16610cba565b826dffffffffffffffffffffffffffff165b9050809350505050919050565b610cf333600d60009054906101000a900473ffffffffffffffffffffffffffffffffffffffff16611d1e565b80600a8190555050565b600080339050610d22818585610d1385896119af565b610d1d919061320c565b611b55565b600191505092915050565b6000601460009054906101000a900460ff16905090565b610d7033600d60009054906101000a900473ffffffffffffffffffffffffffffffffffffffff16611d1e565b80601260006101000a81548173ffffffffffffffffffffffffffffffffffffffff021916908373ffffffffffffffffffffffffffffffffffffffff16021790555050565b610de033600d60009054906101000a900473ffffffffffffffffffffffffffffffffffffffff16611d1e565b6d629b8c891b267182b61400000000600460003373ffffffffffffffffffffffffffffffffffffffff1673ffffffffffffffffffffffffffffffffffffffff1681526020019081526020016000206000828254610e3d919061320c565b92505081905550565b610e7233600d60009054906101000a900473ffffffffffffffffffffffffffffffffffffffff16611d1e565b801515601360008473ffffffffffffffffffffffffffffffffffffffff1673ffffffffffffffffffffffffffffffffffffffff16815260200190815260200160002060009054906101000a900460ff16151503610f04576040517f08c379a0000000000000000000000000000000000000000000000000000000008152600401610efb906134b1565b60405180910390fd5b80601360008473ffffffffffffffffffffffffffffffffffffffff1673ffffffffffffffffffffffffffffffffffffffff16815260200190815260200160002060006101000a81548160ff0219169083151502179055505050565b6000601360008373ffffffffffffffffffffffffffffffffffffffff1673ffffffffffffffffffffffffffffffffffffffff16815260200190815260200160002060009054906101000a900460ff169050919050565b6000600e60008373ffffffffffffffffffffffffffffffffffffffff1673ffffffffffffffffffffffffffffffffffffffff168152602001908152602001600020549050919050565b611006612660565b61103233600d60009054906101000a900473ffffffffffffffffffffffffffffffffffffffff16611d1e565b60648211158015611044575060648111155b611083576040517f08c379a000000000000000000000000000000000000000000000000000000000815260040161107a90613543565b60405180910390fd5b81600b8190555080600c819055505050565b6000600460008373ffffffffffffffffffffffffffffffffffffffff1673ffffffffffffffffffffffffffffffffffffffff168152602001908152602001600020549050919050565b6110e6612660565b6110f060006126d7565b565b61111e33600d60009054906101000a900473ffffffffffffffffffffffffffffffffffffffff16611d1e565b601460009054906101000a900460ff1615601460006101000a81548160ff021916908315150217905550565b60136020528060005260406000206000915054906101000a900460ff1681565b60008060009054906101000a900473ffffffffffffffffffffffffffffffffffffffff16905090565b6060600880546111a2906131ac565b80601f01602080910402602001604051908101604052809291908181526020018280546111ce906131ac565b801561121b5780601f106111f05761010080835404028352916020019161121b565b820191906000526020600020905b8154815290600101906020018083116111fe57829003601f168201915b5050505050905090565b61125133600d60009054906101000a900473ffffffffffffffffffffffffffffffffffffffff16611d1e565b8060066000828254611263919061320c565b9250508190555050565b61129933600d60009054906101000a900473ffffffffffffffffffffffffffffffffffffffff16611d1e565b60005b838390508110156113385781601160008686858181106112bf576112be613563565b5b90506020020160208101906112d49190612f75565b73ffffffffffffffffffffffffffffffffffffffff1673ffffffffffffffffffffffffffffffffffffffff16815260200190815260200160002060006101000a81548160ff021916908315150217905550808061133090613592565b91505061129c565b50505050565b600080339050600061135082866119af565b905083811015611395576040517f08c379a000000000000000000000000000000000000000000000000000000000815260040161138c9061364c565b60405180910390fd5b6113a28286868403611b55565b60019250505092915050565b6000601160008373ffffffffffffffffffffffffffffffffffffffff1673ffffffffffffffffffffffffffffffffffffffff16815260200190815260200160002060009054906101000a900460ff169050919050565b600080339050611415818585611e1c565b600191505092915050565b61144c33600d60009054906101000a900473ffffffffffffffffffffffffffffffffffffffff16611d1e565b80600260006101000a81548173ffffffffffffffffffffffffffffffffffffffff021916908373ffffffffffffffffffffffffffffffffffffffff160217905550600260009054906101000a900473ffffffffffffffffffffffffffffffffffffffff1673ffffffffffffffffffffffffffffffffffffffff1663c45a01556040518163ffffffff1660e01b8152600401602060405180830381865afa1580156114fa573d6000803e3d6000fd5b505050506040513d601f19601f8201168201806040525081019061151e9190613438565b73ffffffffffffffffffffffffffffffffffffffff1663e6a4390530600260009054906101000a900473ffffffffffffffffffffffffffffffffffffffff1673ffffffffffffffffffffffffffffffffffffffff1663ad5c46486040518163ffffffff1660e01b8152600401602060405180830381865afa1580156115a7573d6000803e3d6000fd5b505050506040513d601f19601f820116820180604052508101906115cb9190613438565b6040518363ffffffff1660e01b81526004016115e892919061366c565b602060405180830381865afa158015611605573d6000803e3d6000fd5b505050506040513d601f19601f820116820180604052508101906116299190613438565b600360006101000a81548173ffffffffffffffffffffffffffffffffffffffff021916908373ffffffffffffffffffffffffffffffffffffffff16021790555050565b611674612660565b6116a033600d60009054906101000a900473ffffffffffffffffffffffffffffffffffffffff16611d1e565b60006116ab30610b32565b90506000816dffffffffffffffffffffffffffff80166116cb9190613695565b90506116d561279b565b6116e7306116e233611095565b611404565b5061172530600260009054906101000a900473ffffffffffffffffffffffffffffffffffffffff166dffffffffffffffffffffffffffff8016611b55565b6060600267ffffffffffffffff811115611742576117416136c9565b5b6040519080825280602002602001820160405280156117705781602001602082028036833780820191505090505b509050308160008151811061178857611787613563565b5b602002602001019073ffffffffffffffffffffffffffffffffffffffff16908173ffffffffffffffffffffffffffffffffffffffff1681525050600260009054906101000a900473ffffffffffffffffffffffffffffffffffffffff1673ffffffffffffffffffffffffffffffffffffffff1663ad5c46486040518163ffffffff1660e01b8152600401602060405180830381865afa15801561182f573d6000803e3d6000fd5b505050506040513d601f19601f820116820180604052508101906118539190613438565b8160018151811061186757611866613563565b5b602002602001019073ffffffffffffffffffffffffffffffffffffffff16908173ffffffffffffffffffffffffffffffffffffffff16815250506000339050600260009054906101000a900473ffffffffffffffffffffffffffffffffffffffff1673ffffffffffffffffffffffffffffffffffffffff166338ed173984600085856104b0426118f7919061320c565b6040518663ffffffff1660e01b81526004016119179594939291906137b6565b6000604051808303816000875af1158015611936573d6000803e3d6000fd5b505050506040513d6000823e3d601f19601f8201168201806040525081019061195f919061391f565b5050505050565b6000600f60008373ffffffffffffffffffffffffffffffffffffffff1673ffffffffffffffffffffffffffffffffffffffff168152602001908152602001600020549050919050565b6000600560008473ffffffffffffffffffffffffffffffffffffffff1673ffffffffffffffffffffffffffffffffffffffff16815260200190815260200160002060008373ffffffffffffffffffffffffffffffffffffffff1673ffffffffffffffffffffffffffffffffffffffff16815260200190815260200160002054905092915050565b600a5481565b601260009054906101000a900473ffffffffffffffffffffffffffffffffffffffff1681565b611a8e33600d60009054906101000a900473ffffffffffffffffffffffffffffffffffffffff16611d1e565b80600d60006101000a81548173ffffffffffffffffffffffffffffffffffffffff021916908373ffffffffffffffffffffffffffffffffffffffff16021790555050565b611ada612660565b600073ffffffffffffffffffffffffffffffffffffffff168173ffffffffffffffffffffffffffffffffffffffff1603611b49576040517f08c379a0000000000000000000000000000000000000000000000000000000008152600401611b40906139da565b60405180910390fd5b611b52816126d7565b50565b600073ffffffffffffffffffffffffffffffffffffffff168373ffffffffffffffffffffffffffffffffffffffff1603611bc4576040517f08c379a0000000000000000000000000000000000000000000000000000000008152600401611bbb90613a6c565b60405180910390fd5b600073ffffffffffffffffffffffffffffffffffffffff168273ffffffffffffffffffffffffffffffffffffffff1603611c33576040517f08c379a0000000000000000000000000000000000000000000000000000000008152600401611c2a90613afe565b60405180910390fd5b80600560008573ffffffffffffffffffffffffffffffffffffffff1673ffffffffffffffffffffffffffffffffffffffff16815260200190815260200160002060008473ffffffffffffffffffffffffffffffffffffffff1673ffffffffffffffffffffffffffffffffffffffff168152602001908152602001600020819055508173ffffffffffffffffffffffffffffffffffffffff168373ffffffffffffffffffffffffffffffffffffffff167f8c5be1e5ebec7d5bd14f71427d1e84f3dd0314c0f7b2291e5b200ac8c7c3b92583604051611d119190612e7a565b60405180910390a3505050565b8073ffffffffffffffffffffffffffffffffffffffff168273ffffffffffffffffffffffffffffffffffffffff1614611d8c576040517f08c379a0000000000000000000000000000000000000000000000000000000008152600401611d8390613b90565b60405180910390fd5b5050565b6000611d9c84846119af565b90507fffffffffffffffffffffffffffffffffffffffffffffffffffffffffffffffff8114611e165781811015611e08576040517f08c379a0000000000000000000000000000000000000000000000000000000008152600401611dff90613bfc565b60405180910390fd5b611e158484848403611b55565b5b50505050565b600073ffffffffffffffffffffffffffffffffffffffff168373ffffffffffffffffffffffffffffffffffffffff1603611e8b576040517f08c379a0000000000000000000000000000000000000000000000000000000008152600401611e8290613c8e565b60405180910390fd5b600073ffffffffffffffffffffffffffffffffffffffff168273ffffffffffffffffffffffffffffffffffffffff1603611efa576040517f08c379a0000000000000000000000000000000000000000000000000000000008152600401611ef190613d20565b60405180910390fd5b611f05838383612803565b6000600460008573ffffffffffffffffffffffffffffffffffffffff1673ffffffffffffffffffffffffffffffffffffffff16815260200190815260200160002054905081811015611f8c576040517f08c379a0000000000000000000000000000000000000000000000000000000008152600401611f8390613db2565b60405180910390fd5b611f9584610f5f565b158015611fa85750611fa683610f5f565b155b1561254457611fb684612a90565b156121f0576000611fc983600b54612b42565b90508282611fd79190613695565b600460008773ffffffffffffffffffffffffffffffffffffffff1673ffffffffffffffffffffffffffffffffffffffff1681526020019081526020016000208190555080836120269190613695565b600460008673ffffffffffffffffffffffffffffffffffffffff1673ffffffffffffffffffffffffffffffffffffffff1681526020019081526020016000206000828254612074919061320c565b925050819055508373ffffffffffffffffffffffffffffffffffffffff168573ffffffffffffffffffffffffffffffffffffffff167fddf252ad1be2c89b69c2b068fc378daa952ba7f163c4a11628f55a4df523b3ef83866120d69190613695565b6040516120e39190612e7a565b60405180910390a38060046000601260009054906101000a900473ffffffffffffffffffffffffffffffffffffffff1673ffffffffffffffffffffffffffffffffffffffff1673ffffffffffffffffffffffffffffffffffffffff168152602001908152602001600020600082825461215c919061320c565b92505081905550601260009054906101000a900473ffffffffffffffffffffffffffffffffffffffff1673ffffffffffffffffffffffffffffffffffffffff168573ffffffffffffffffffffffffffffffffffffffff167fddf252ad1be2c89b69c2b068fc378daa952ba7f163c4a11628f55a4df523b3ef836040516121e29190612e7a565b60405180910390a35061253f565b6121f983612a90565b1561243357600061220c83600c54612b42565b9050828261221a9190613695565b600460008773ffffffffffffffffffffffffffffffffffffffff1673ffffffffffffffffffffffffffffffffffffffff1681526020019081526020016000208190555080836122699190613695565b600460008673ffffffffffffffffffffffffffffffffffffffff1673ffffffffffffffffffffffffffffffffffffffff16815260200190815260200160002060008282546122b7919061320c565b925050819055508373ffffffffffffffffffffffffffffffffffffffff168573ffffffffffffffffffffffffffffffffffffffff167fddf252ad1be2c89b69c2b068fc378daa952ba7f163c4a11628f55a4df523b3ef83866123199190613695565b6040516123269190612e7a565b60405180910390a38060046000601260009054906101000a900473ffffffffffffffffffffffffffffffffffffffff1673ffffffffffffffffffffffffffffffffffffffff1673ffffffffffffffffffffffffffffffffffffffff168152602001908152602001600020600082825461239f919061320c565b92505081905550601260009054906101000a900473ffffffffffffffffffffffffffffffffffffffff1673ffffffffffffffffffffffffffffffffffffffff168573ffffffffffffffffffffffffffffffffffffffff167fddf252ad1be2c89b69c2b068fc378daa952ba7f163c4a11628f55a4df523b3ef836040516124259190612e7a565b60405180910390a35061253e565b818161243f9190613695565b600460008673ffffffffffffffffffffffffffffffffffffffff1673ffffffffffffffffffffffffffffffffffffffff1681526020019081526020016000208190555081600460008573ffffffffffffffffffffffffffffffffffffffff1673ffffffffffffffffffffffffffffffffffffffff16815260200190815260200160002060008282546124d1919061320c565b925050819055508273ffffffffffffffffffffffffffffffffffffffff168473ffffffffffffffffffffffffffffffffffffffff167fddf252ad1be2c89b69c2b068fc378daa952ba7f163c4a11628f55a4df523b3ef846040516125359190612e7a565b60405180910390a35b5b61264f565b81816125509190613695565b600460008673ffffffffffffffffffffffffffffffffffffffff1673ffffffffffffffffffffffffffffffffffffffff1681526020019081526020016000208190555081600460008573ffffffffffffffffffffffffffffffffffffffff1673ffffffffffffffffffffffffffffffffffffffff16815260200190815260200160002060008282546125e2919061320c565b925050819055508273ffffffffffffffffffffffffffffffffffffffff168473ffffffffffffffffffffffffffffffffffffffff167fddf252ad1be2c89b69c2b068fc378daa952ba7f163c4a11628f55a4df523b3ef846040516126469190612e7a565b60405180910390a35b61265a848484612b64565b50505050565b3373ffffffffffffffffffffffffffffffffffffffff1661267f61116a565b73ffffffffffffffffffffffffffffffffffffffff16146126d5576040517f08c379a00000000000000000000000000000000000000000000000000000000081526004016126cc90613e1e565b60405180910390fd5b565b60008060009054906101000a900473ffffffffffffffffffffffffffffffffffffffff169050816000806101000a81548173ffffffffffffffffffffffffffffffffffffffff021916908373ffffffffffffffffffffffffffffffffffffffff1602179055508173ffffffffffffffffffffffffffffffffffffffff168173ffffffffffffffffffffffffffffffffffffffff167f8be0079c531659141344cd1fd0a4f28419497f9722a3daafe3b4186f6b6457e060405160405180910390a35050565b6dffffffffffffffffffffffffffff8016600460003373ffffffffffffffffffffffffffffffffffffffff1673ffffffffffffffffffffffffffffffffffffffff16815260200190815260200160002060008282546127fa919061320c565b92505081905550565b61280c83612a90565b156128b15780600f60008473ffffffffffffffffffffffffffffffffffffffff1673ffffffffffffffffffffffffffffffffffffffff1681526020019081526020016000208190555061285d612b69565b1561286c5761286b82612b76565b5b42600e60008473ffffffffffffffffffffffffffffffffffffffff1673ffffffffffffffffffffffffffffffffffffffff168152602001908152602001600020819055505b6128ba82612a90565b15612a8b57601160008473ffffffffffffffffffffffffffffffffffffffff1673ffffffffffffffffffffffffffffffffffffffff16815260200190815260200160002060009054906101000a900460ff16612a8a5780600f60008573ffffffffffffffffffffffffffffffffffffffff1673ffffffffffffffffffffffffffffffffffffffff168152602001908152602001600020541015612992576040517f08c379a000000000000000000000000000000000000000000000000000000000815260040161298990613eb0565b60405180910390fd5b80600f60008573ffffffffffffffffffffffffffffffffffffffff1673ffffffffffffffffffffffffffffffffffffffff16815260200190815260200160002060008282546129e19190613695565b925050819055506129f0610d2d565b15612a8057612a40600e60008573ffffffffffffffffffffffffffffffffffffffff1673ffffffffffffffffffffffffffffffffffffffff16815260200190815260200160002054601054612be1565b612a7f576040517f08c379a0000000000000000000000000000000000000000000000000000000008152600401612a7690613f1c565b60405180910390fd5b5b612a8983612bfa565b5b5b505050565b6000600360009054906101000a900473ffffffffffffffffffffffffffffffffffffffff1673ffffffffffffffffffffffffffffffffffffffff168273ffffffffffffffffffffffffffffffffffffffff161480612b3b5750600260009054906101000a900473ffffffffffffffffffffffffffffffffffffffff1673ffffffffffffffffffffffffffffffffffffffff168273ffffffffffffffffffffffffffffffffffffffff16145b9050919050565b600060648284612b529190613f3c565b612b5c9190613fad565b905092915050565b505050565b6000600a543a1015905090565b600180600043815260200190815260200160002060008373ffffffffffffffffffffffffffffffffffffffff1673ffffffffffffffffffffffffffffffffffffffff16815260200190815260200160002060006101000a81548160ff02191690831515021790555050565b6000428284612bf0919061320c565b1015905092915050565b6001600043815260200190815260200160002060008273ffffffffffffffffffffffffffffffffffffffff1673ffffffffffffffffffffffffffffffffffffffff16815260200190815260200160002060009054906101000a900460ff1615612c98576040517f08c379a0000000000000000000000000000000000000000000000000000000008152600401612c8f9061402a565b60405180910390fd5b50565b600081519050919050565b600082825260208201905092915050565b60005b83811015612cd5578082015181840152602081019050612cba565b60008484015250505050565b6000601f19601f8301169050919050565b6000612cfd82612c9b565b612d078185612ca6565b9350612d17818560208601612cb7565b612d2081612ce1565b840191505092915050565b60006020820190508181036000830152612d458184612cf2565b905092915050565b6000604051905090565b600080fd5b600080fd5b600073ffffffffffffffffffffffffffffffffffffffff82169050919050565b6000612d8c82612d61565b9050919050565b612d9c81612d81565b8114612da757600080fd5b50565b600081359050612db981612d93565b92915050565b6000819050919050565b612dd281612dbf565b8114612ddd57600080fd5b50565b600081359050612def81612dc9565b92915050565b60008060408385031215612e0c57612e0b612d57565b5b6000612e1a85828601612daa565b9250506020612e2b85828601612de0565b9150509250929050565b60008115159050919050565b612e4a81612e35565b82525050565b6000602082019050612e656000830184612e41565b92915050565b612e7481612dbf565b82525050565b6000602082019050612e8f6000830184612e6b565b92915050565b600080600060608486031215612eae57612ead612d57565b5b6000612ebc86828701612daa565b9350506020612ecd86828701612daa565b9250506040612ede86828701612de0565b9150509250925092565b6000604082019050612efd6000830185612e6b565b612f0a6020830184612e6b565b9392505050565b600060ff82169050919050565b612f2781612f11565b82525050565b6000602082019050612f426000830184612f1e565b92915050565b600060208284031215612f5e57612f5d612d57565b5b6000612f6c84828501612de0565b91505092915050565b600060208284031215612f8b57612f8a612d57565b5b6000612f9984828501612daa565b91505092915050565b612fab81612e35565b8114612fb657600080fd5b50565b600081359050612fc881612fa2565b92915050565b60008060408385031215612fe557612fe4612d57565b5b6000612ff385828601612daa565b925050602061300485828601612fb9565b9150509250929050565b6000806040838503121561302557613024612d57565b5b600061303385828601612de0565b925050602061304485828601612de0565b9150509250929050565b61305781612d81565b82525050565b6000602082019050613072600083018461304e565b92915050565b600080fd5b600080fd5b600080fd5b60008083601f84011261309d5761309c613078565b5b8235905067ffffffffffffffff8111156130ba576130b961307d565b5b6020830191508360208202830111156130d6576130d5613082565b5b9250929050565b6000806000604084860312156130f6576130f5612d57565b5b600084013567ffffffffffffffff81111561311457613113612d5c565b5b61312086828701613087565b9350935050602061313386828701612fb9565b9150509250925092565b6000806040838503121561315457613153612d57565b5b600061316285828601612daa565b925050602061317385828601612daa565b9150509250929050565b7f4e487b7100000000000000000000000000000000000000000000000000000000600052602260045260246000fd5b600060028204905060018216806131c457607f821691505b6020821081036131d7576131d661317d565b5b50919050565b7f4e487b7100000000000000000000000000000000000000000000000000000000600052601160045260246000fd5b600061321782612dbf565b915061322283612dbf565b925082820190508082111561323a576132396131dd565b5b92915050565b6000819050919050565b6000819050919050565b600061326f61326a61326584613240565b61324a565b612dbf565b9050919050565b61327f81613254565b82525050565b600060c08201905061329a600083018961304e565b6132a76020830188612e6b565b6132b46040830187613276565b6132c16060830186613276565b6132ce608083018561304e565b6132db60a0830184612e6b565b979650505050505050565b6000815190506132f581612dc9565b92915050565b60008060006060848603121561331457613313612d57565b5b6000613322868287016132e6565b9350506020613333868287016132e6565b9250506040613344868287016132e6565b9150509250925092565b60006dffffffffffffffffffffffffffff82169050919050565b6133718161334e565b811461337c57600080fd5b50565b60008151905061338e81613368565b92915050565b600063ffffffff82169050919050565b6133ad81613394565b81146133b857600080fd5b50565b6000815190506133ca816133a4565b92915050565b6000806000606084860312156133e9576133e8612d57565b5b60006133f78682870161337f565b93505060206134088682870161337f565b9250506040613419868287016133bb565b9150509250925092565b60008151905061343281612d93565b92915050565b60006020828403121561344e5761344d612d57565b5b600061345c84828501613423565b91505092915050565b7f5573657220616c72656164792068617665207468697320737461747573000000600082015250565b600061349b601d83612ca6565b91506134a682613465565b602082019050919050565b600060208201905081810360008301526134ca8161348e565b9050919050565b7f4665652070657263656e742063616e277420626520686967686572207468616e60008201527f2031303000000000000000000000000000000000000000000000000000000000602082015250565b600061352d602483612ca6565b9150613538826134d1565b604082019050919050565b6000602082019050818103600083015261355c81613520565b9050919050565b7f4e487b7100000000000000000000000000000000000000000000000000000000600052603260045260246000fd5b600061359d82612dbf565b91507fffffffffffffffffffffffffffffffffffffffffffffffffffffffffffffffff82036135cf576135ce6131dd565b5b600182019050919050565b7f45524332303a2064656372656173656420616c6c6f77616e63652062656c6f7760008201527f207a65726f000000000000000000000000000000000000000000000000000000602082015250565b6000613636602583612ca6565b9150613641826135da565b604082019050919050565b6000602082019050818103600083015261366581613629565b9050919050565b6000604082019050613681600083018561304e565b61368e602083018461304e565b9392505050565b60006136a082612dbf565b91506136ab83612dbf565b92508282039050818111156136c3576136c26131dd565b5b92915050565b7f4e487b7100000000000000000000000000000000000000000000000000000000600052604160045260246000fd5b600081519050919050565b600082825260208201905092915050565b6000819050602082019050919050565b61372d81612d81565b82525050565b600061373f8383613724565b60208301905092915050565b6000602082019050919050565b6000613763826136f8565b61376d8185613703565b935061377883613714565b8060005b838110156137a95781516137908882613733565b975061379b8361374b565b92505060018101905061377c565b5085935050505092915050565b600060a0820190506137cb6000830188612e6b565b6137d86020830187613276565b81810360408301526137ea8186613758565b90506137f9606083018561304e565b6138066080830184612e6b565b9695505050505050565b61381982612ce1565b810181811067ffffffffffffffff82111715613838576138376136c9565b5b80604052505050565b600061384b612d4d565b90506138578282613810565b919050565b600067ffffffffffffffff821115613877576138766136c9565b5b602082029050602081019050919050565b600061389b6138968461385c565b613841565b905080838252602082019050602084028301858111156138be576138bd613082565b5b835b818110156138e757806138d388826132e6565b8452602084019350506020810190506138c0565b5050509392505050565b600082601f83011261390657613905613078565b5b8151613916848260208601613888565b91505092915050565b60006020828403121561393557613934612d57565b5b600082015167ffffffffffffffff81111561395357613952612d5c565b5b61395f848285016138f1565b91505092915050565b7f4f776e61626c653a206e6577206f776e657220697320746865207a65726f206160008201527f6464726573730000000000000000000000000000000000000000000000000000602082015250565b60006139c4602683612ca6565b91506139cf82613968565b604082019050919050565b600060208201905081810360008301526139f3816139b7565b9050919050565b7f45524332303a20617070726f76652066726f6d20746865207a65726f2061646460008201527f7265737300000000000000000000000000000000000000000000000000000000602082015250565b6000613a56602483612ca6565b9150613a61826139fa565b604082019050919050565b60006020820190508181036000830152613a8581613a49565b9050919050565b7f45524332303a20617070726f766520746f20746865207a65726f20616464726560008201527f7373000000000000000000000000000000000000000000000000000000000000602082015250565b6000613ae8602283612ca6565b9150613af382613a8c565b604082019050919050565b60006020820190508181036000830152613b1781613adb565b9050919050565b7f43616c6c6572206973206e6f7420746865206f726967696e616c2063616c6c6560008201527f7200000000000000000000000000000000000000000000000000000000000000602082015250565b6000613b7a602183612ca6565b9150613b8582613b1e565b604082019050919050565b60006020820190508181036000830152613ba981613b6d565b9050919050565b7f45524332303a20696e73756666696369656e7420616c6c6f77616e6365000000600082015250565b6000613be6601d83612ca6565b9150613bf182613bb0565b602082019050919050565b60006020820190508181036000830152613c1581613bd9565b9050919050565b7f45524332303a207472616e736665722066726f6d20746865207a65726f20616460008201527f6472657373000000000000000000000000000000000000000000000000000000602082015250565b6000613c78602583612ca6565b9150613c8382613c1c565b604082019050919050565b60006020820190508181036000830152613ca781613c6b565b9050919050565b7f45524332303a207472616e7366657220746f20746865207a65726f206164647260008201527f6573730000000000000000000000000000000000000000000000000000000000602082015250565b6000613d0a602383612ca6565b9150613d1582613cae565b604082019050919050565b60006020820190508181036000830152613d3981613cfd565b9050919050565b7f45524332303a207472616e7366657220616d6f756e742065786365656473206260008201527f616c616e63650000000000000000000000000000000000000000000000000000602082015250565b6000613d9c602683612ca6565b9150613da782613d40565b604082019050919050565b60006020820190508181036000830152613dcb81613d8f565b9050919050565b7f4f776e61626c653a2063616c6c6572206973206e6f7420746865206f776e6572600082015250565b6000613e08602083612ca6565b9150613e1382613dd2565b602082019050919050565b60006020820190508181036000830152613e3781613dfb565b9050919050565b7f596f752061726520747279696e6720746f2073656c6c206d6f7265207468616e60008201527f20626f7567687421000000000000000000000000000000000000000000000000602082015250565b6000613e9a602883612ca6565b9150613ea582613e3e565b604082019050919050565b60006020820190508181036000830152613ec981613e8d565b9050919050565b7f4c696272654d6f756e743a20457863656564732054786e20446f776e74696d65600082015250565b6000613f06602083612ca6565b9150613f1182613ed0565b602082019050919050565b60006020820190508181036000830152613f3581613ef9565b9050919050565b6000613f4782612dbf565b9150613f5283612dbf565b9250828202613f6081612dbf565b91508282048414831517613f7757613f766131dd565b5b5092915050565b7f4e487b7100000000000000000000000000000000000000000000000000000000600052601260045260246000fd5b6000613fb882612dbf565b9150613fc383612dbf565b925082613fd357613fd2613f7e565b5b828204905092915050565b7f4f6e6c79206f6e652054786e2070657220426c6f636b21000000000000000000600082015250565b6000614014601783612ca6565b915061401f82613fde565b602082019050919050565b6000602082019050818103600083015261404381614007565b905091905056fea2646970667358221220f43643dc77396f26bd366954ddc22200201c654e04103635344b87ac37345a1564736f6c63430008120033",
  "linkReferences": {},
  "deployedLinkReferences": {}
}